:020000040800F2
:10000000001000203D0D0008890D0008890D000832
:1000100000000000000000000000000000000000E0
:10002000000000000000000000000000890D000832
:100030000000000000000000890D0008890D000884
:10004000890D0008890D0008890D0008890D000838
:10005000890D0008890D0008890D0008890D000828
:1000600000000000890D0008890D0008890D0008B6
:10007000890D0008890D0008890D0008890D000808
:10008000890D00080000000000000000890D000834
:1000900000000000890D0008890D0008890D000886
:1000A00000000000890D000800000000890D000814
:1000B0000000000000000000000000000000000040
:1000C00010B5064C2378002B07D1054B002B02D02E
:1000D000044800E000BF0123237010BD300200205F
:1000E00000000000E4420008044B10B5002B03D0D0
:1000F0000349044800E000BF10BDC04600000000F6
:1001000034020020E4420008164B002B00D1144BAF
:100110009D46402292029A1A924600218B460F4633
:100120001348144A121A02F091FA0F4B002B00D018
:1001300098470E4B002B00D0984700200021040068
:100140000D000D48002802D00C4800F0B2FA02F071
:10015000CFF92000290000F00CFC00F0A7FAC046FF
:1001600000000800001000200000000067090008DF
:100170003002002028040020B30600080000000020
:1001800082B001900091009B002B05D0019B9B68E1
:10019000019A12681A6004E0019BDB68019A1268F8
:1001A0001A60C04602B0704700B583B001900A00E3
:1001B0006B4602331A80019B18001C231A00002191
:1001C00002F044FA019A6B46023300215B5E19008B
:1001D000100001F03CFC019B180003B000BD00B50D
:1001E00083B001900091019B009A11001800FFF765
:1001F000C7FFC04603B000BD00B583B001900091B9
:10020000009A019B11001800FFF7E9FF019B1800FD
:1002100003B000BD10B50A4B01211800FFF7ECFF39
:10022000084B181C01F07CFF054B00211800FFF75C
:10023000E3FFFE239B05181C01F072FFEBE7C046AD
:100240004C020020CDCC4C3E00B583B00190009113
:10025000019B012B08D1009B054A934204D1054B19
:1002600013211800FFF7A0FFC04603B000BDC04631
:10027000FFFF00004C02002010B5034B19000120C5
:10028000FFF7E2FF10BDC046FFFF00000C4B70B54A
:100290001A68D24392070ED080220A4C1205C0255C
:1002A00016686D05551904322E60A242F7D103225B
:1002B0001C6822431A60044BC0188000016070BDA6
:1002C00000000140B0000008100000081FB505281C
:1002D00036D802F0B9FF03111D35352980201B4A9D
:1002E000800251690143516153690340902000939A
:1002F000009BC00505B000BD8020144AC0025169B2
:1003000001435161536903400193019B1048F1E798
:1003100080200E4A00035169014351615369034033
:100320000293029B0B48E5E78020084AC00351690D
:1003300001435161536903400393039B0648D9E786
:10034000064801F09FFE0020D4E7C046001002409E
:100350000004004800080048001400482C3B000836
:1003600010B50400431C04D176220649064801F06A
:100370009FFD2000002100F015FB0F2301201C40F1
:10038000A04010BD4D3B0008A73B0008F8B5040095
:100390000F0021824B1C17D00F2608093040FFF7B1
:1003A00095FF05003800FFF7DBFF238A074A33403B
:1003B0009B009B586561A3612B0010336360283557
:1003C00008332060A360E560F8BDC046C83C000863
:1003D00010B51023C05E00F055FB10BD10B5836949
:1003E00044695B432268002904D103314B439A439B
:1003F000226010BD032159438A4313432360F8E769
:1004000010B501F07DFA002010BD00000A4B10B5B8
:100410001B68002B09D001F07BFB01F030FDFA22B4
:100420000023920002F0BEFF10BD01F0B7FAFA21DE
:10043000890002F013FFF7E76802002070B58AB068
:1004400001F054FDC825132103A801F000FB9626F6
:100450006D000424039A059B30001A60019201F09C
:100460006BFE039A069B30001A60013C019201F07A
:1004700063FE002CEED10434039A059B28001A6019
:10048000019201F059FE039A069B28001A60013C74
:10049000019201F051FE002CEED1DAE770B50D00AB
:1004A0000400A0B001F022FD2B002200802168464C
:1004B00002F00CFC051E03DC01F02EFD20B070BD27
:1004C000094B0A4E1B68002B04D10F220221300079
:1004D00000F08AFB00246B463000195D013400F007
:1004E0001BFCA542F7D1E7E77C0200204403002073
:1004F0000FB407B504A901C90191FFF7CFFF03B0FD
:1005000008BC04B01847000010B501F0AFF900F0C6
:100510003DFC01F09FF901F0A9F90122014B1A609D
:1005200010BDC046680200200020704710B5036867
:1005300001221B690021984710BD002210B50368F5
:1005400011001B69984710BD10B503681B699847D7
:1005500010BD10B503689B69984710BD10B50368BE
:100560009B6A984710BD0020814200D1193870471E
:100570000120704770471D204042704716204042BE
:1005800070470120704700207047704770B5150014
:100590000C008E18B44205D02178034800F0BCFB53
:1005A0000134F7E7280070BD4403002070B58DB218
:1005B0000024EB0705D5084800F0BCFA441EA04112
:1005C00004B21026354205D0034800F0C3FA0028D3
:1005D00000D03443200070BD4403002010B5040057
:1005E00002F016F8200010BD002010B50C00824269
:1005F00004D0034800F07EFB2070012010BDC046EF
:100600004403002070B51D00084B0400083303604C
:10061000074B1B68002B07D1064E300000F0E4FAB0
:100620002900300000F0D2FA200070BDBC3B000869
:100630007C02002044030020002070470020704707
:100640000C4910B50B681818EFF30882904205D3D7
:100650000C220120084B40421A6010BD074A146862
:10066000002C04D0064A126812199042F0D2086099
:100670001800F2E7B40100202404002074020020D6
:100680007802002070B5074C05002368986801F0D7
:1006900045FE2368D86801F041FE002D01D0FFF728
:1006A000CDFEFEE7C00100200120704710B5FFF726
:1006B000E9FF012070477047704710B5FFF7FBFF57
:1006C00010BD10B5FFF7F8FF10BD0000032210B5F4
:1006D0000378040013400020012B0BD0834204D088
:1006E000054A0649064801F0E3FB0223012022786F
:1006F0001343237010BDC046A90500000C3C000840
:10070000633C0008032210B5037804001340022B59
:1007100004D0064A0649074801F0CAFB03222378A1
:1007200093431A0001231343237010BDB105000049
:100730000C3C0008893C0008F8B5040000203F2C60
:1007400019DC184EA500A859431C14D1022C12DC48
:100750002000FFF773FF00280CD12000FFF76CFF8B
:10076000002807D1104F3B78BFF35B8F0F4CDB079E
:1007700002D520007051F8BD3800FFF7A7FF002810
:10078000F7D096230F229B0102212000FFF73AFFAA
:100790003800FFF7B7FF064A06492000FFF784FF3D
:1007A000E7E7C046B40000206C0200207002002081
:1007B000B00000208B05000870B50400FFF7BCFFF7
:1007C000A30000240B4A9C50A04206D101F0EAFC91
:1007D000092303600120404270BD03685B699847AC
:1007E00005002000002DF7DA01F0DCFC6D42056009
:1007F000F0E7C046B400002010B5FFF7DDFF10BDE4
:1008000070B50C001500FFF797FF002807D101F025
:10081000C9FC0923036001246442200070BD036801
:100820002100DB682A009847041EF6DA01F0BAFCC2
:1008300064420460EFE710B5002A06DA01F0B2FC6A
:1008400016230360173B180010BD131EFBD0FFF7E3
:10085000D7FF031EF7DA01235B42F4E770B50C0003
:100860001500FFF769FF002807D101F09BFC092361
:10087000036001246442200070BD036821009B686E
:100880002A009847041EF6DA01F08CFC64420460EA
:10089000EFE710B5002A06DA01F084FC16230360A6
:1008A0000120404210BDFFF7D9FFFBE710B5FFF76D
:1008B00043FF041E05D101F075FC092303602000ED
:1008C00010BD0368DB699847041EF8DA01F06AFC82
:1008D000644204600024F2E710B5FFF7E7FF10BDA3
:1008E00070B50C001500FFF727FF002807D101F0B5
:1008F00059FC0923036001246442200070BD036891
:1009000021001B692A009847041EF6DA01F04AFC10
:1009100064420460EFE710B5FFF7E2FF10BD70B569
:100920000D00FFF709FF041E06D101F03BFC09236F
:1009300003600120404270BD0368DB699847802353
:10094000002808D11B026B60236820009B6A98472F
:1009500028610020EFE79B01F5E710B5FFF7DFFF07
:1009600010BD7047704710B5FFF7CEFDFFF7FAFFD7
:1009700010BD10B5FFF7F5FFFFF74CFC10BD10B52B
:10098000032449434C435143C368A3430B43C3600F
:1009900010BD10B5012A02D0022A00D00022FFF7B4
:1009A000EEFF10BDF0B585B004000191431C04D1E9
:1009B0003E223049304801F07BFA0727019B0F2582
:1009C0001F4023002B409A0002932C4B2009D6583D
:1009D0002840FFF77BFC3300734300930323009907
:1009E00082684B43D9431343040003918360032F70
:1009F0001ED8380002F028FC11110211019B1A12B6
:100A0000029B2A40072B0AD9330A5B435B435D43B1
:100A10005343616AA9430B43636239000EE00099B6
:100A2000236A49434D434A43AB4313432362F4E7EC
:100A300010496722124801F03BFA00212268039B0B
:100A40001A40009B4B43134323607B1E012B05D8A8
:100A5000019B1B070BD5636833436360019B310027
:100A60009A06920F2000FFF794FF05B0F0BD63686F
:100A7000B343F2E7083D0008A73B0008C83C000864
:100A8000473E000870B504000E00431C04D18822C4
:100A90001C491D4801F00CFA0F2023001B4A03409B
:100AA0009B009D5824092040FFF710FC29000323D8
:100AB00069434B4304000068184002F0CFFB013843
:100AC000012805D8F31E022B0AD863682B43636004
:100AD000032E08D1012229002000FFF75AFF70BD24
:100AE0006368AB436360012EF4D0052E01D0022E63
:100AF00001D10222EFE7002229002000FFF73FFF8B
:100B0000EDE7C046083D0008A73B0008C83C0008C8
:100B10000FB407B5054B05AA1B680549D8680192B3
:100B200001F0DAFE03B008BC04B01847C001002091
:100B3000603D0008702342685343054A9B580822D1
:100B4000D969114200D01A62D8698006C00F704777
:100B500068030020702342685343034A9B58D869B6
:100B60000006C00F7047C04668030020702243682B
:100B700010B55A4304681449545053188268190038
:100B80005A60C26852319A6002690239DA60426979
:100B90001A61C2699A610022DA614A804A810A8038
:100BA00008310A801A21425E013205D108225A61B9
:100BB000180000F0BFFD10BD1821425E013201D1C6
:100BC0000422F4E70C22F2E76803002010B58160EC
:100BD0000C00FFF7CBFF002803D021000148FFF7EE
:100BE00097FF10BD603D0008F0B50E0085B0040011
:100BF00036493000150000F075FF35490190280096
:100C000000F070FF0100019800F048FF2060431CD5
:100C100004D13D222F49304801F04AF90127022E24
:100C20000CD00F2D0AD02949022000F05BFF019B58
:100C30000027834202D1294801F024FA284B226878
:100C40009A423FD18020274AC001916901439161B6
:100C5000936903400393039B00236360013304D132
:100C6000A4221C49204801F023F91849300000F063
:100C7000F3FE1749280000F0EFFE731C03D001219A
:100C80003000FFF7FFFE6B1C03D001212800FFF7A7
:100C9000F9FE96239B01A36000232683E360236172
:100CA0006361E36165832000FFF760FF002F07D0D9
:100CB00001220E4B21001A600D48233201F0BDFCC9
:100CC00005B0F0BD01235B42C7E7C046F03A00081B
:100CD000B43A00088A3D0008E63D0008023E0008DC
:100CE0000038014000100240373E00087C0200201E
:100CF0004403002070B5040045682000FFF71AFF88
:100D00000028FAD070236B43024A9B58988CC0B2DB
:100D100070BDC0466803002070B505000C00466831
:100D20002800FFF717FF0028FAD070237343024A08
:100D3000E4B29B581C8570BD680300200C488546B2
:100D40000C480D490D4A002302E0D458C450043326
:100D5000C4188C42F9D30A4A0A4C002301E01360FC
:100D60000432A242FBD300F01BFDFFF7CDF9FEE7F2
:100D700000100020B000002030020020F0420008E7
:100D80003002002028040020FEE770471023064AA6
:100D900010B5116803200B431360FFF731FBFFF719
:100DA000F4FF002010BDC04600200240F0B50368EB
:100DB00085B00500DB072FD42B689B0700D581E0A9
:100DC0002B681B0700D5BCE02B685B0700D5DFE074
:100DD0002B68DB061AD56A69B54C0423012A00D0BA
:100DE0004BE1616B02260B436363636B1A436263DF
:100DF000FFF70CFB0700636B334200D136E1F821AB
:100E0000626BAB698A43DB0013436363296A002981
:100E100000D059E1002013E00C21A54C62680A4083
:100E2000042A06D063680B40082B0BD16368DB03F0
:100E300008D523689B03BFD56B68002BBCD101206C
:100E400005B0F0BD6B68012B13D1802322685B02D3
:100E500013432360FFF7DAFA80260700B6022368FF
:100E60003342A9D1FFF7D2FAC01B6428F7D9032077
:100E7000E6E7002B16D123688E4A802613402360B4
:100E800023688D4AB60213402360FFF7BFFA0700BC
:100E90002368334200D18FE7FFF7B8FAC01B6428FC
:100EA000F6D9E4E7052B05D180232268DB02134342
:100EB0002360CAE723687F4A1340236023687E4A81
:100EC0001340C6E70C227A4C6368134206D063686D
:100ED0001340082B10D16368DB030DD423689B07F4
:100EE00002D5EB68012BAAD1F82122682B698A432D
:100EF000DB001343236063E7EA680123002A0FD075
:100F00002268022613432360FFF780FA0700236854
:100F10003342E9D1FFF77AFAC01B0228F7D9A6E7D6
:100F2000226802269A432260FFF770FA07002368BE
:100F3000334200D144E7FFF769FAC01B0228F6D913
:100F400095E7EA6901235A4C002A10D0626A02260A
:100F500013436362FFF75AFA0700636A334200D013
:100F600032E7FFF753FAC01B0228F6D97FE7626A1F
:100F700002269A436262FFF749FA0700636A334226
:100F800000D121E7FFF742FAC01B0228F6D96EE72D
:100F900080220021464C5205E3690091134208D19A
:100FA000E3691343E361E36913400393039B012364
:100FB00000938027414E7F0033683B4206D0AB68E8
:100FC000012B13D1226A1343236230E033683B4381
:100FD0003360FFF71BFA019033683B42EFD1FFF714
:100FE00015FA019BC01A6428F6D940E70122002BAC
:100FF00014D1236A022793432362236A0332934363
:101000002362FFF703FA0600236A3B4225D0FFF76D
:10101000FDF92B4B801B9842F6D928E7052B0BD105
:10102000216A013B0B432362236A1A432262FFF7C2
:10103000EDF9022706000DE0236A934304222362A0
:10104000236A9343C0E7FFF7E1F91D4B801B9842E9
:1010500000D90CE7236A3B42F5D0009B012B00D05E
:10106000B6E6E369174A1340E361B1E6FFF7CEF94C
:10107000C01B022800D8BEE6F9E6053203D1626B38
:101080009A436263BBE6626B0226134301226363E9
:10109000636B93436363FFF7B9F90700636B3342F4
:1010A00000D1B3E6FFF7B2F9C01B0228F6D9DEE69D
:1010B00000100240FFFFFEFFFFFFFBFF007000403B
:1010C00088130000FFFFFFEF0C22264C012063680D
:1010D0001340082B00D1B3E62368234A1340236052
:1010E00002292FD1FFF792F980260700B604236862
:1010F000334221D10F22E36A9343EA6A1343E36246
:10110000696AAB6A62680B43184980250A40134339
:101110006360802322685B0413432360FFF776F942
:101120000600AD0423682B4200D073E6FFF76EF98A
:10113000801B0228F6D99AE6FFF768F9C01B02283F
:10114000D5D994E6FFF762F980250600AD0423683F
:101150002B4200D15EE6FFF759F9801B0228F6D931
:1011600085E6C04600100240FFFFFFFEFFFFC2FF02
:1011700070B5144C88B010222100684601F05DFA69
:10118000210004AD10221031280001F056FA0C2283
:101190000D4E73681A40082A11D10F206A46990C27
:1011A0000140545CF26A0240A95CDB0305D50748A4
:1011B00002F054F8604308B070BD0548FAE70348F0
:1011C000F9E7C046493E00080010024000127A00CC
:1011D00000093D00F7B50122434C060023680F00CB
:1011E00013408B421CD33268930723D4D30729D4EE
:1011F000012322681A40974267D333683B4C5B0750
:101200006AD4FFF7B5FF6368394A1B061B0FD35C2E
:10121000D840384B18600320FFF7F2F8002008E0B0
:10122000236893430B432360236813409942DAD029
:101230000120FEBDF0202D494B688343B068034375
:101240004B60D3E7294D72682B68012A1AD19B03A2
:10125000EED503216B688B4313436B60FFF7D6F821
:1012600073680190012B15D10C226B681340042B7D
:10127000BED0FFF7CBF8019BC01A1F4B9842F3D9A1
:101280000320D6E7022A02D19B01E2D4D0E79B07D4
:10129000DFD4CDE7022B12D00C226B681342A7D00B
:1012A000FFF7B4F8019BC01A134B9842F4D9E7E753
:1012B000FFF7ACF8019BC01A0F4B9842E0D80C2204
:1012C0006B681340082BF3D192E722689A4322609F
:1012D00022681A42ACD190E76368084A1340F2686A
:1012E000134363608DE7C0460020024000100240B7
:1012F000813E0008B801002088130000FFF8FFFFBE
:10130000044B054A5B685B055B0FD35C034A1068BE
:10131000D840704700100240913E0008B8010020FC
:10132000072310B503240360094B5A68224042602A
:101330005A68ED3422408260E0225B68D20013409C
:101340000122C360034B1B6813400B6010BDC046F5
:101350000010024000200240704700001D4A10B5F6
:101360000368904206D08024E405A04202D01A4CC3
:10137000A0420CD17024A3434C68234390420FD069
:101380008024E405A0420BD0134CA04208D0134C9B
:10139000A04205D0124CA04202D0124CA04203D170
:1013A000114C2340CC6823438024A3434C6923433E
:1013B00003608B68C3620B688362904205D0084B60
:1013C000984202D0074B984201D10B690363012375
:1013D000436110BD002C014000040040002000408B
:1013E0000044014000480140FFFCFFFF70B50400CD
:1013F0000120002C14D025003D352B78DBB2002BCA
:1014000005D122003C3213702000FFF7A5FF022314
:1014100020682B70211DFFF7A1FF012300202B70F6
:1014200070BD10B501248C408A40036AA343036257
:10143000036A1A43026210BD10B50400012200685D
:10144000FFF7EFFF23680A4A934205D0094A934207
:1014500002D0094A934204D18022596C12020A43F5
:101460005A640122196800200A431A6010BDC04660
:10147000002C0140004401400048014010B5FFF736
:10148000DBFF10BD7047000070B504000568C2693D
:10149000836800692968034360690343354813433F
:1014A00001400B432B606B683349206A0B40E168B5
:1014B0000B436B60A369A9680343304801400B43A9
:1014C0000321AB602E4B1B6B0B402E49C85C802365
:1014D0001B029A422CD1082827D801F0B5FE052618
:1014E0000B261E2626262100FFF70AFF6368400010
:1014F0005B0802E063685808234BC018616801F07C
:10150000ADFE83B200200F22190091430A001B0791
:1015100021685B0F1343CB6070BDFFF729FEE5E741
:101520006368580880235B02E7E701200023EAE7AD
:1015300008281DD801F088FE051C0A1C141C1C1C60
:101540001700FFF7DDFE61684B0802E061680F4B92
:101550004808C01801F082FE80B2E8600020DBE796
:10156000FFF706FEEFE7802361681B024808F0E7FB
:101570000120D1E7F369FFFFFFCFFFFFFFF4FFFF7B
:1015800000100240693E00080024F40000127A00B6
:10159000436A30B5DA0706D50168284C4A6822400C
:1015A000846A22434A609A0706D50168244C4A6837
:1015B0002240C46A22434A605A0706D50168214C7A
:1015C0004A682240046B22434A601A0706D5016824
:1015D0001D4C4A682240446B22434A60DA0606D515
:1015E00001681A4C8A682240846B22438A609A06FA
:1015F00006D50168164C8A682240C46B22438A6073
:101600005A0610D50168134D4A68046C2A402243DB
:101610004A6080225203944205D14A680E4C22400F
:10162000446C22434A601B0606D502680B49536886
:101630000B40816C0B43536030BDC046FFFFFDFF84
:10164000FFFFFEFFFFFFFBFFFF7FFFFFFFEFFFFF3F
:10165000FFDFFFFFFFFFEFFFFFFF9FFFFFFFF7FF32
:10166000F8B504000E0015001F002268D36933404E
:101670009B1B59424B41AB4201D0002018E0069B16
:101680000133F3D0069B002B13D123680C491A6851
:1016900003200A401A609A68A331FF318A439A6096
:1016A00022002023693213705370002368342370A2
:1016B000F8BDFEF7ABFE069BC01B8342D5D2E4E724
:1016C0005FFEFFFF73B500260400C666FEF79EFEB0
:1016D000164A23680500934208D0220020230020E8
:1016E0006932683413705370207076BD1B681B0715
:1016F0000FD423681B685B07EFD580210C4B0022B9
:101700000093C9032B002000FFF7AAFF00280BD18C
:10171000E3E78021064B3200009389030300200099
:10172000FFF79EFF0028E4D00320DEE700380140E9
:10173000FFFFFF0170B5041E01D1012070BD05003F
:1017400069352B78DBB2002B04D1020068321370AC
:10175000FFF798FE2423012122682B7013682000D4
:101760008B431360FFF790FE0128E6D0636A002BDD
:1017700002D02000FFF70CFF236808495A682000B8
:101780000A402A215A609A688A439A60012219689D
:101790000A431A60FFF796FFD0E7C046FFB7FFFF86
:1017A0000122124B1248196811431960596801400F
:1017B000596019680F480140196019680E480140C6
:1017C000196059680D4801400F205960D96A81435A
:1017D000D962196B0A4801401963596B91435963E7
:1017E0000021996099690A439A617047001002408C
:1017F0000CB8FF08FFFFF6FEFFFFFBFFFFFFC0FF77
:10180000ECFEFFFF102370B590B008930A93A0235D
:101810000024022501269B0304A804950594069440
:10182000079609940B940C950D940F940E93FFF763
:10183000BDFAA0420BD107233100684602940394FD
:1018400000930195FFF7C6FC44424441E4B22000F6
:1018500010B070BD10B5FFF7D5FF002802D10248C7
:1018600000F010FC10BDC0466D3E00080C2270B5A3
:10187000124D134E6B681340042B01D0082B0AD075
:10188000104B33606B68104A1B061B0FD35C326829
:10189000DA40326070BD0F236C686A68A40C1C408B
:1018A0000234E96AD20307D519400131054801F035
:1018B000D5FC44433460E5E70448FAE700100240F1
:1018C000B801002000127A00813E000800093D00A6
:1018D0008023084ADB0510B5136002221969114202
:1018E00006D0D968114203D0053A1A6100F014F904
:1018F00010BDC046DC030020004870479C3E000835
:1019000030B587B0694602A8FFF70AFDFFF7F8FC7B
:1019100001221D4B0090D9691C4C1143D961D96932
:101920001140019101991969114319611969914394
:1019300019618023DB05236001235B42E360059B83
:10194000002B1FD1124901F089FC0025013860608D
:1019500020002561A5606561A561FFF747FD0D4980
:101960000F20FEF793FC80220B4B12021A60290015
:101970002000FFF783FD02212268D3688B43D360E8
:1019800007B030BD4000DDE700100240DC0300205E
:1019900040420F00D118000800E100E08023DB0581
:1019A000586A70470322054B52421B6858631A61FC
:1019B000D96805320A43DA607047C046DC0300206C
:1019C0000322064B52421B681A61596905321143C2
:1019D0005961D9680A43DA607047C046DC030020C9
:1019E0000221034B1A68D3688B43D3607047C0460B
:1019F000DC03002010B5FFF7F3FF10BD0322024BFC
:101A000052421B681A617047DC03002070B50368FE
:101A100004000D00002A0AD0826813602000012112
:101A2000FEF7DCFC29002000FEF7D2FC70BDC26886
:101A3000F3E770B50D0004001600FEF7A7FC6B1C61
:101A400004D0320000212000FFF7E0FF70BD10B588
:101A50000022FFF7EEFF10BD13B50400431C0CD1AC
:101A600013BD9C4208D120008968FEF79BFF00212E
:101A70002000FFF707F8F3E70C3100228B5E5A1CB9
:101A8000EFD10023220000930249034800F01CFB21
:101A9000E6E7C046D53E00083001018007B50200E8
:101AA00088420BD0431C09D04B1C09D000230549A8
:101AB0000093054800F008FB0121494208000EBDD3
:101AC0000100FBE7A43E00083001018000228B5E8C
:101AD0005A1C01D1180002E0834201D148687047C6
:101AE0000C31F3E713B50400431C0BD0FFF7EEFFF6
:101AF0000400431C06D1002302000093024903485E
:101B000000F0E2FA200016BDB53E00083001018069
:101B100000487047E83E0008034B10B51B68002BD7
:101B200001D00248984710BDBC010020E83E0008E3
:101B3000F0B50400036887B05B684668984763683F
:101B40001B6A984243D0336AF268C31A1A40B368DA
:101B500014000393039A354B002530629A4230D02B
:101B600033003A331F78314A002320002900AF4266
:101B700038D001F037FC3A000090019101F0FAFBF7
:101B8000009A019B04000D00B06AF16A12184B41E3
:101B900020000092019329003A0001F0F7FB009A1F
:101BA000019B121A8B41002100920193019B039823
:101BB00099420ED1009B98420BD9009A019BB262C8
:101BC000F362326B736B12196B413263736307B04C
:101BD000F0BD01220023A4185D41009A019B121A56
:101BE0008B41ECE701F0FEFB039B01970093009A09
:101BF000019B0490059101F0D5FB009A019B040024
:101C00000D000498059901F0CDFBB06AF16A121835
:101C10004B410199994202D100999142CFD80120BC
:101C2000002124184D4100980199D8E740420F0047
:101C30000300824206D901208A4202D9994280419A
:101C40004042704700208B42FBD991424041F8E767
:101C5000F7B5456806002B0039331B78002B11D1EE
:101C6000FFF766FF74683768616800294ED0226B01
:101C7000636B08684968994205D801D1904202D83F
:101C80007B699847F7BD801A994123690093E369FE
:101C90008B420DD302D1A369834209D3A368019378
:101CA000019A1E4B9A421CD1009B834200D900909E
:101CB000226A009B9446E46863441C402B6AA3425A
:101CC000DED03B692000984733685B689847220064
:101CD0000100286AFFF7ACFF0028D3D033685B69A6
:101CE000CFE723003A331B789C46002B07D01A001D
:101CF00001F04CFB094A002301F054FBD4E7020039
:101D00000B000198614601F06DFBF3E72B6A2A692D
:101D1000E8689B1818403B699847B3E740420F00BA
:101D2000F0B50400036887B01B68984723689B6977
:101D3000984705680600002D05D129223549364807
:101D400000F0B6F8354D1F230122D9B203911100DE
:101D50009940A94203D0013B002BF6D1039373684D
:101D60000193043B1C2B06D937222A492A4800F04C
:101D70009FF8202301930722019B0027043B9A40F0
:101D800002920298D1170023244A01F02BFB2E0067
:101D900002000B0001204042C117801979418018D0
:101DA00059412A003B0001F0FDFA002367680490C6
:101DB00005913B607B6023685B68984700220023A5
:101DC000386267680120BA62FB626A463B00127B98
:101DD0003A33BD6000211A70019A01F0D7FA029BD4
:101DE00001383B61049A059BBA61FB610022002324
:101DF0003A637B633B003933F8601A70012338374C
:101E00003B702000FFF794FE2000FFF721FF07B092
:101E1000F0BDC0460C3F0008473E000840420F009E
:101E200010B5040000F062F82368DB6898470122CF
:101E3000636839331A7063685B68002B15D0200023
:101E4000FFF776FE63685A68596B506888420CD871
:101E500003D11168186B814207D8D16859601B689B
:101E6000002BE8D090689847E5E7002263682000DF
:101E700039331A70FFF7ECFE00F04EF810BD10B5C4
:101E80004368040038331B78002B01D1FFF748FF6B
:101E900000F02CF82000FFF74BFE00F03DF86368DF
:101EA000186B596B10BD10B5FFF7E9FF10BD0000AE
:101EB00070B50D001600040000F018F833002A0079
:101EC00021000348FEF714FBFEF7B8FA70BDC046C8
:101ED0005E3F0008EFF31083012098437047EFF353
:101EE0000580431E9841C0B27047000010B5074CF2
:101EF0002368013304D1552205490648FFF7D8FF6E
:101F000000F022F923680133236010BDC0020020D5
:101F10008F3F0008E43F0008064B10B51A68002AFE
:101F200007D01A68013A1A601B68002B01D100F033
:101F30001DF910BDC0020020F0B591B0060001915E
:101F40001700002800DB184E184C2378012B00D115
:101F5000FEE7FFF7CBFF01232370FFF7DDFF144DF2
:101F600000222B683421013303A82B6000F06EFBA4
:101F7000019B039605932B680497012B04D134220F
:101F800003A90C4800F059FB0B4D342203A928008B
:101F900000F053FB094B1B68002B01D02800984729
:101FA0000020207011B0F0BD0101FF80CC020020A4
:101FB000C4020020D002002004030020C802002038
:101FC00073B5224C060021684B009B0F8DB2032B8A
:101FD00000D14D420B141E48DBB22A00FEF788FAEE
:101FE00028003238FF38072809D8A16801F02CF9F9
:101FF000041F21232529272B1648FEF779FA3000E4
:10200000FEF776FA61681448FEF772FAA168134881
:10201000FEF76EFAE3690C340193E368104800930D
:102020000ECCFEF765FA0F48FEF762FA73BD0E4854
:10203000E3E70E48E1E70E48DFE70E48DDE70E482C
:10204000DBE70E48D9E70E48D7E7C0460403002077
:102050002A4000087B400008084100081841000899
:102060002B4100087A410008904000089F4000087A
:10207000AD400008BF400008D2400008E54000081D
:10208000F34000080FB437B50C4D2978002910D162
:10209000012472460A48FFF74FFF0A48FFF790FFF6
:1020A00007A906982C700191FEF7F8F92000FEF7B9
:1020B000FDFA37BC08BC04B01847C046CC0200206B
:1020C0000001FF801540000810B50C001100724699
:1020D000FFF732FF00280FD12000FFF771FFFFF755
:1020E000FEFE002803D1FFF7F5FE002801D130BF26
:1020F000FDE70120FEF7DAFA004810BD0F01FF806E
:1021000070B50500FFF704FD0400FFF7CCFE0600E4
:102110002000FFF7C8FE801BA842F9D370BD000065
:1021200010B5044901F04AFA01F07AFBFFF7E8FF25
:1021300010BDC04600247449FA2310B59B005843D3
:10214000FFF7DEFF10BD0000EFF31083DB4372B634
:10215000044A1178002904D1013103480B4003706F
:1021600011707047390300203803002010B5EFF3D9
:102170001083DB0704D4362206490748FFF798FE90
:102180000022064B1A70064B1B78934200D062B6B1
:1021900010BDC04694410008F041000839030020FA
:1021A00038030020014B18687047C046C00100206A
:1021B000F7B58A8905000C00130760D44B68002B23
:1021C00004DC0B6C002B01DC0020FEBDE76A002F55
:1021D000FAD000232E682B6080235B01216A1A400D
:1021E00034D0606DA3895B0706D56368C01A636B42
:1021F000002B01D0236CC01A0200216A00232800A2
:10220000E76AB847A189431C06D12B681D2B30D83B
:102210002B4ADA40D3072CD500236360236923605F
:10222000CB0405D5431C02D12B68002B00D160657F
:10223000616B2E600029C7D023004433994202D03D
:10224000280001F03FFB00206063BEE70123280067
:10225000B847431CC6D12B68002BC3D01D2B01D01F
:10226000162B01D12E60AFE74023A2891343A3812F
:10227000ABE740230B430120A3814042A5E70F6950
:10228000002FA1D00B680F60DB1B01930023920786
:1022900000D14B69A360019B002B00DC94E7019BFC
:1022A0003A00216A2800A66AB047002803DC4023D0
:1022B000A2891343DFE7019B3F181B1A0193EAE74A
:1022C000010040200B6970B505000C00002B01D106
:1022D000002070BD002804D08369002B01D100F0DC
:1022E00073F80B4B9C4209D16C680C22A35E002B47
:1022F000EED021002800FFF75BFFEAE7054B9C4288
:1023000001D1AC68F1E7044B9C42EED1EC68ECE7FC
:102310002C4200084C4200080C42000810B5011E77
:1023200005D1054B0549186800F0C0F810BD044BF5
:102330001868FFF7C7FFF9E76C420008C5220008DC
:10234000C0010020002310B50400036043608360D7
:1023500081814366C2810361436183611900082260
:102360005C3000F073F9054B24626362044BA36296
:10237000044BE362044B236310BDC046DD2B000811
:10238000052C00083D2C0008692C000810B50249F6
:1023900000F08CF810BDC046C522000870B5682555
:1023A0004A1E55430E002900743101F083FA041EC1
:1023B00008D000212A00016046600C30A06068321D
:1023C00000F044F9200070BD836913B50400002BB0
:1023D00028D18364C3640365134B144A1B6882626B
:1023E0000193984201D101238361200000F020F87D
:1023F0006060200000F01CF8A060200000F018F8D9
:102400000022E06004216068FFF79CFF012209219F
:10241000A068FFF797FF02221221E068FFF792FF02
:102420000123A36113BDC0466C4200088D23000840
:10243000F8B51C4B07001E68B369002B02D13000B1
:10244000FFF7C2FF4836B4687368013B04D53368B0
:10245000002B07D03668F6E70C22A55E002D0DD0C4
:102460006834F2E704213800FFF798FF3060002855
:10247000F0D10C2304003B602000F8BD20000A4B83
:10248000656625606560A560E36025616561A5619D
:10249000082229005C3000F0D9F86563A563A564C3
:1024A000E564E9E76C4200080100FFFFF7B50400AE
:1024B0000700002601914834002C01D13000FEBDF8
:1024C0006368A5680093009B013B009301D52468D5
:1024D000F2E7AB89012B08D90E22AB5E013304D0A1
:1024E00029003800019B984706436835EBE7000058
:1024F00070B500260C4D0D4C641BA410A64209D1EA
:10250000002601F0CBFA0A4D0A4C641BA410A64227
:1025100005D170BDB300EB5898470136EEE7B30024
:10252000EB5898470136F2E72402002024020020ED
:10253000240200202C02002070B50E001D000E2386
:10254000C95E96B01400002907DA00232B60B38916
:102550001B0611D48023DB000FE06A4600F0B4FCB8
:102560000028F2DBF022019B12021340054A9B185F
:102570005A4253412B60EDE740230020236016B000
:1025800070BDC04600E0FFFFF7B502268B8905004D
:102590000C00334206D0230047332360236101231C
:1025A0006361F7BD01AB6A46FFF7C6FF00990700FC
:1025B000280001F07FF9002808D10C22A35E9A05BB
:1025C000EFD4032293431E43A681E4E70F4BAB6293
:1025D0008023A28920601343A381009B2061636153
:1025E000019B002B0DD00E23E15E280000F07EFC45
:1025F000002806D00322A38993431A000123134322
:10260000A381A0893843A081CBE7C0468D23000871
:1026100010B5034B0100186801F054F910BDC04615
:10262000C0010020C9B28218904201D10020704739
:1026300003788B42FBD00130F6E7002310B59A42B5
:1026400000D110BDCC5CC4540133F8E7030012186C
:10265000934200D1704719700133F9E7936810B5C0
:10266000013B9360002B04DA9469A34207DB0A293B
:1026700005D01368581C10601970080010BD00F0D8
:1026800031FB0100F9E7F8B506000F001400D5187A
:10269000AC4201D1002007E021783A003000FFF77A
:1026A000DDFF0134431CF3D1F8BD0000F0B59FB04D
:1026B00002900F0016000593002805D0836904934B
:1026C000002B01D1FFF780FE7B4B9F425BD1029B29
:1026D0005F68BB891B0762D53B69002B5FD0002375
:1026E00006AC6361203363761033A37635002B7814
:1026F000002B01D0252B5CD1AB1B04930CD03200F6
:1027000039000298FFF7BFFF431C00D1C4E06269A3
:10271000049B9446634463612B78002B00D1BBE09B
:10272000012200235242626002A9543252186E1CE8
:102730002360E360A3601370A365317805225F48CE
:10274000FFF770FF751C002835D12268D30604D529
:10275000532302A95B1820211970130704D55323B2
:1027600002A95B182B21197033782A2B2CD0350045
:1027700000210A20E3682A786E1C303A092A64D9BD
:1027800000292ED026E04E4B9F4202D1029B9F682B
:102790009FE74C4B9F429CD1029BDF6899E7390031
:1027A000029800F009FB002899D0012040421FB098
:1027B000F0BD01359BE7414B2268C01A01238340DD
:1027C000134323602E00B8E7059B191D1B68059174
:1027D000002B01DB099304E05B42E3600223134317
:1027E00023602B782E2B0AD16B782A2B35D1059BB1
:1027F00002351A1D1B680592002B2BDB0793324E06
:10280000297803223000FFF70DFF002806D040236F
:10281000801B8340226801351343236029780622F8
:102820002A486E1C2176FFF7FDFE00283AD0284B7F
:10283000002B25D10722059B0733934308330593CB
:102840006369039A9B18636150E7434301219B1816
:10285000350090E701235B42D0E700230A201A00ED
:102860000135636029786E1C3039092903D9002BA2
:10287000C5D00792C3E74243012352183500F1E760
:1028800005AB00933A00134B2100029800E000BF13
:102890000390039B0133D3D1BB895B0600D584E74A
:1028A0000B9884E705AB00933A000A4B210002988D
:1028B00000F08CF8ECE7C0462C420008704200089B
:1028C0004C4200080C420008764200087A42000898
:1028D000000000008726000810B513000A00010060
:1028E00002480068FFF7E2FE10BDC046C0010020AC
:1028F000F7B5150001938A680B6900900C009342AC
:1029000000DA130022002B6043321278002A01D033
:1029100001332B6023689B0602D52B6802332B60A2
:10292000062723681F4027D0230043331B785A1EF5
:1029300093412268920630D42200019943320098D4
:10294000089EB047431C25D0062320682A68E1680A
:1029500003400025042B03D18D1AEB43DB171D40E8
:10296000A3682269934201DD9B1AED180027BD423E
:1029700020D1002010E00137E3682A689B1ABB428F
:10298000D2DD22000123193201990098089EB04738
:10299000431CF0D101204042FEBD3020E1184331FC
:1029A000087021005A1C45310978A21843320233BD
:1029B0001170C1E7220001231A3201990098089E84
:1029C000B047431CE6D00137D1E70000F0B589B02D
:1029D00004920A0043320593039002920A7E0C008F
:1029E0000E9B6E2A00D186E01FD8632A33D008D808
:1029F000002A00D18CE0582A4DD0250042352A709B
:102A000030E0642A01D0692AF7D1196825680A1DC7
:102A1000280629D508681A60002803DA2D23029AAF
:102A2000404213706B4E0A274FE0732A74D008D8C7
:102A30006F2A1FD0702AE0D1202209680A43226041
:102A400003E0752A16D0782AD7D1220078214532A2
:102A50001170614E22E025001A684235111D19607F
:102A600013682B70012365E008681A606906D3D5E6
:102A700000B2D1E719682568081D186008682E069D
:102A800005D5544E08276F2A1BD00A2719E06D067A
:102A9000F7D580B2F5E745314E4E0A7018682268C6
:102AA000011D00681960150621D5D30702D5202322
:102AB0001A4322601027002803D1202322689A435A
:102AC00022602300002243331A706368A360002B46
:102AD00058DB0422216891432160002854D1029DD3
:102AE000002B5AD02500337842352B7055E055061F
:102AF000DBD580B2D9E71A680D68101D49691860E6
:102B000013682E0601D5196002E06D06FBD5198009
:102B10000023029D23614FE01A68111D196015689A
:102B2000002162682800FFF77DFD002801D0401BCE
:102B30006060636823610023029A13703CE023699C
:102B40002A0004990398059DA847431C3ED023689A
:102B50009B0715D4079BE068984239DA180037E0E4
:102B600022000123193204990398059EB047431CA3
:102B70002CD00135E368079A9B1AAB42F0DCE9E7F9
:102B80000025F7E70028ADD0029D390000F0ECFBEE
:102B9000735C013D2B700028F7D1082F09D1236801
:102BA000DB0706D563682269934202DC3023013DCE
:102BB0002B70029B5B1B2361059B07AA00932100DE
:102BC000049B0398FFF794FE431CB8D101204042B8
:102BD00009B0F0BD814200089242000870B50C00B7
:102BE0000E25495F00F01CFB002803DB636D1B18FA
:102BF000636570BDA389024A1340A381F9E7C0460B
:102C0000FFEFFFFFF8B51F008B8905000C001600D1
:102C1000DB0505D50E23C95E0022022300F078F9FA
:102C2000A389054A28001340A38132000E23E15EE8
:102C30003B0000F0ADF8F8BDFFEFFFFF70B50C00F2
:102C40000E25495F00F064F9A389421C03D1054AAF
:102C50001340A38170BD802252011343A38160659C
:102C6000F8E7C046FFEFFFFF10B50E23C95E00F086
:102C700019F910BD30B514009BB005001A00002CE6
:102C800005DA8B230360012040421BB030BD822354
:102C900068469B0083810023009104919C4200D0F0
:102CA000631E02930593012369465B42CB81280092
:102CB0001E9B00F0B7F9431C01DA8B232B60002C1C
:102CC000E3D00023009A1370DFE7000007B50093FC
:102CD00013000A00010002480068FFF7CBFF0EBD99
:102CE000C0010020F8B505000E001400002804D033
:102CF0008369002B01D1FFF767FB224B9C422DD14A
:102D00006C68A369A360A3891B0731D52369002BD5
:102D10002ED023682269F7B2981A6369F6B283420B
:102D200005DC21002800FFF7CDFA002826D1A36892
:102D30000130013BA36023685A1C22601F70636945
:102D4000834204D0A389DB071AD50A2E18D12100AB
:102D50002800FFF7B7FA002812D00FE00A4B9C4278
:102D600001D1AC68CDE7094B9C42CAD1EC68C8E7F9
:102D70002100280000F020F80028CAD00126764261
:102D80003000F8BD2C4200084C4200080C420008FC
:102D900070B50500080011000022064C22601A00E0
:102DA000FDF749FD431C03D12368002B00D02B60A5
:102DB00070BDC04624040020364B70B51D68060067
:102DC0000C00002D05D0AB69002B02D12800FFF7C5
:102DD000FBFA314B9C420FD16C680C23E25E93B23C
:102DE00019072DD4D90611D40923012033603733B4
:102DF0001343A381404270BD284B9C4201D1AC6873
:102E0000EBE7274B9C42E8D1EC68E6E75B0713D57C
:102E1000616B002908D023004433994202D030006E
:102E200000F050FD002363632422A3899343A38110
:102E300000236360236923600823A2891343A381CD
:102E40002369002B0BD1A0218022A3898900920045
:102E50000B40934203D021003000FFF795FB012384
:102E6000A289134011D00023A36063695B42A36170
:102E7000002023698342BED10C23E25E1306BAD53B
:102E800040231343A3810138B5E7920700D4636957
:102E9000A360EDE7C00100202C4200084C4200086E
:102EA0000C420008002370B5064C050008002360A2
:102EB000FDF7A2FC431C03D12368002B00D02B603C
:102EC00070BDC04624040020002370B5064C0500E8
:102ED000080011002360FDF740FD431C03D1236867
:102EE000002B00D02B6070BD24040020002370B59F
:102EF000064C050008002360FDF7EEFC431C03D1DF
:102F00002368002B00D02B6070BDC0462404002035
:102F100070B50500080011000022064C22601A005E
:102F2000FDF7F9FC431C03D12368002B00D02B6074
:102F300070BDC0462404002010B5884202D98B1809
:102F4000984203D3002307E08B5C8354013AFBD201
:102F500010BDCC5CC45401339A42FAD1F8E70000AA
:102F6000F0B58E6885B007000C00039201939E4275
:102F70003CD890238A89DB001A4234D003250969A2
:102F800023685B1A0293636902985D43EB0F5D1936
:102F9000019B6D1001331B18AB4200D91D00530576
:102FA00032D52900380000F085FC061E09D10C231B
:102FB0003B6040230120A28940421343A38105B016
:102FC000F0BD029A2169FFF738FBA389144A1A4021
:102FD00080231343A381029B2661F6182660656156
:102FE000019EED1AA560019B9E4200D9019E320010
:102FF00003992068FFF7A0FFA36800209B1BA36034
:1030000023689E192660DAE72A00380000F056FC93
:10301000061EE0D12169380000F054FCC7E7C04625
:103020007FFBFFFFF0B59FB0029005938B890F00E7
:1030300016001B0611D50B69002B0ED1402100F0A4
:1030400039FC38603861002805D10C23029A013818
:1030500013601FB0F0BD40237B61002306AC6361A9
:10306000203363761033A37635002B78002B01D004
:10307000252B46D1AB1B04930CD0320039000298AB
:10308000FFF76EFF431C00D1AEE06269049B9446DB
:10309000634463612B78002B00D1A5E0012200235B
:1030A0005242626002A9543252186E1C2360E360DF
:1030B000A3601370A365317805225448FFF7B2FA74
:1030C000751C00281FD12268D30604D5532302A9FA
:1030D0005B1820211970130704D5532302A95B182C
:1030E0002B21197033782A2B16D0350000210A20A5
:1030F000E3682A786E1C303A092A4ED9002918D084
:1031000010E00135B1E7414B2268C01A012383402A
:10311000134323602E00CEE7059B191D1B68059104
:10312000002B01DB099304E05B42E36002231343BD
:1031300023602B782E2B0AD16B782A2B35D1059B57
:1031400002351A1D1B680592002B2BDB0793304EAE
:10315000297803223000FFF765FA002806D04023C3
:10316000801B83402268013513432360297806229F
:1031700028486E1C2176FFF755FA00283CD0264BD4
:10318000002B25D10722059B073393430833059372
:103190006369039A9B18636166E7434301219B18A7
:1031A0003500A6E701235B42D0E700230A201A007E
:1031B0000135636029786E1C3039092903D9002B49
:1031C000C5D00792C3E74243012352183500F1E707
:1031D00005AB00933A00114B2100029800E000BFBC
:1031E0000390039B0133D3D1BB890B985B0600D4BA
:1031F0002FE7012040422CE705AB00933A00074B34
:1032000021000298FFF7E2FBEAE7C046704200089F
:10321000764200087A42000800000000612F000892
:1032200070B50500080011000022064C22601A004B
:10323000FDF72FFB431C03D12368002B00D02B602C
:1032400070BDC0462404002002B4714649084900FC
:10325000095C49008E4402BC7047C0460022430806
:103260008B4274D303098B425FD3030A8B4244D34E
:10327000030B8B4228D3030C8B420DD3FF22090290
:1032800012BA030C8B4202D31212090265D0030B4F
:103290008B4219D300E0090AC30B8B4201D3CB0345
:1032A000C01A5241830B8B4201D38B03C01A524187
:1032B000430B8B4201D34B03C01A5241030B8B4289
:1032C00001D30B03C01A5241C30A8B4201D3CB0274
:1032D000C01A5241830A8B4201D38B02C01A524159
:1032E000430A8B4201D34B02C01A5241030A8B425C
:1032F00001D30B02C01A5241CDD2C3098B4201D374
:10330000CB01C01A524183098B4201D38B01C01AF1
:10331000524143098B4201D34B01C01A5241030968
:103320008B4201D30B01C01A5241C3088B4201D317
:10333000CB00C01A524183088B4201D38B00C01AC4
:10334000524143088B4201D34B00C01A5241411AEB
:1033500000D20146524110467047FFE701B50020F8
:1033600000F006F802BDC0460029F7D076E77047A6
:103370007047C046D0400B1CD1409C46203AD340F9
:103380001843524263469340184370479140031CD0
:1033900090409C46203A9340194352426346D340A2
:1033A00019437047002B11D1002A0FD1002900D1F9
:1033B000002802D00021C943081C07B4024802A11A
:1033C0004018029003BDC046A9FFFFFF03B4684642
:1033D00001B5029800F030F8019B9E4602B00CBC8B
:1033E0007047C046F0B5CE46474615042D0C2E005A
:1033F00080B50704140C3F0C9946030C7E435D43D3
:10340000674363437F19340CE4199C46A54203D9F2
:1034100080235B029846C4444B4643435143250CEA
:1034200036046544360C2404A4195B19591820008D
:103430000CBC90469946F0BDF0B54F464646D64680
:10344000C0B5040082B00D00914698468B422FD83B
:103450002CD04146484600F021FA29000600200001
:1034600000F01CFA331A9C46203B9A4600D576E0C1
:103470004B46524693401F004B46624693401E0007
:10348000AF4228D825D05346A41BBD41002B00DAFB
:103490007BE00022002300920193012352469340D7
:1034A0000193012362469340009318E08242D0D9F1
:1034B00000220023009201930A9B002B01D01C6084
:1034C0005D600098019902B01CBC90469946A246E6
:1034D000F0BDA342D7D90022002300920193634696
:1034E000002BE9D0FB079846414672080A437B0847
:1034F00066460EE0AB4201D1A2420CD8A41A9D410F
:10350000012024196D410021013E24184D41002E57
:1035100006D0AB42EED9013E24196D41002EF8D100
:1035200000980199534600196941002B23DB2B00B9
:103530005246D3402A006446E2401C005346150020
:10354000002B2DDB26005746BE4033002600674681
:10355000BE403200801A994100900191ACE762466A
:1035600020239B1A4A46DA406146130042468A40AD
:1035700017001F4380E7624620239B1A2A006646F5
:103580009A402300F3401343D4E7624620230021EE
:103590009B1A0022009101920122DA40019280E7F9
:1035A0002023624626009B1ADE402F00B046664666
:1035B000B74046463B003343C8E7C046F0B54E46E9
:1035C00057464546DE46E0B543025B0A450083B0F8
:1035D0000F1C99462D0EC60F002D57D0FF2D24D05D
:1035E0008020DB00C0041843002381469A469B4696
:1035F0007F3D7C027A00FB0F640A120E984623D0AE
:10360000FF2A4BD0E30080240020E4047F3A1C43CF
:10361000AD186B1C47460193534677403A000F2B79
:1036200048D87D499B00CB589F46002B00D085E0B1
:1036300008339A46063B9B467C027A00FB0FFF2527
:10364000640A120E9846DBD1002C00D090E052465E
:1036500001231A4392460120DBE74C4658461700E7
:10366000022824D0032800D1CFE000220023012823
:103670004DD15802D205400AFF071043384303B02A
:103680003CBC90469946A246AB46F0BD002B5BD1B0
:1036900004239A46033B00259B46AAE7FF35002CEE
:1036A00060D1524602231A4392460220B1E7FF221C
:1036B0000023DEE74B461B0C9C464B462604360C8B
:1036C000180461463300220C6446000C43434E4309
:1036D0005043544380191A0C1218964203D9802182
:1036E00049028C4664441B041B0C1004C01883015F
:1036F0005E1EB341800E1843130C1B199B0103433C
:103700001C00230179D5012362081C401443019A4F
:103710007F32002A4DDD630704D00F232340042BA2
:1037200000D00434230103D53C4B019A1C40803265
:10373000FE2ABCDCA3015B0AD2B29AE70C239A46AC
:10374000093BFF259B4654E7180000F089F84A46DC
:10375000431F76259A4000236D4291462D1A9A46C2
:103760009B4646E7524603231A439246032050E7FE
:10377000200000F075F8431F2D1A9C40763D002074
:1037800047E780230027DB03FF2272E7424666E714
:103790004C463200584662E780234A46DB031A4211
:1037A00022D01C4220D123435B025B0A4746FF2202
:1037B0005FE701239A1A1B2A21DC23000199D340D9
:1037C0009E318C401A0023005C1EA34113435A070C
:1037D00004D00F221A40042A00D004335A0111D415
:1037E0009B015B0A002244E780234A46DB03134324
:1037F0005B025B0A3700FF223BE7019587E7002267
:10380000002336E70122002333E78023DB03234331
:103810005B025B0AFF222CE7A4420008FFFFFFF7D0
:1038200041024200C30F490A120E00207E2A0DD920
:103830009D2A0CD8802000040143952A0ADC96209A
:10384000821AD1404842002B00D108007047034A39
:103850009818FBE7963A9140F4E7C046FFFFFF7FD8
:103860001C2101231B04984201D3000C10391B0AB0
:10387000984201D3000A08391B09984201D3000974
:10388000043902A2105C40187047C04604030202CB
:1038900001010101000000000000000010B5002936
:1038A00003D1FFF7DDFF203002E0081CFFF7D8FF4F
:1038B00010BDC04610B500F053F810BD10B500F0B3
:1038C000ADF810BD10B500F001F810BD70B50500E1
:1038D000002910D00C1F2368002B00DAE418280000
:1038E000FCF7EBFE1D4A1368002B05D163601460E2
:1038F0002800FCF7E6FE70BDA34209D921686018D4
:103900008342F3D118685B6841182160EEE7130029
:103910005A68002A01D0A242F9D919685818A04261
:103920000BD120680918581819608242E0D110683C
:103930005268411819605A60DAE7A04202D90C2394
:103940002B60D5E721686018824203D11068526865
:103950004118216062605C60CAE7C0463C030020F9
:10396000032370B5CD1C9D43083506000C2D1ED2D7
:103970000C25A9421DD83000FCF79FFE254A14688B
:103980002100002919D1244C2368002B03D13000D9
:1039900000F06AF820602900300000F065F8431C50
:1039A0002BD10C2330003360FCF78BFE03E0002D9D
:1039B000DFDA0C233360002070BD0B685B1B19D469
:1039C0000B2B03D90B60CC18256003E04B688C42AD
:1039D0000DD113603000FCF774FE200007220B307D
:1039E000231D9043C31AE7D05A42E250E4E76360D4
:1039F0000C00EFE70C004968C3E70323C41C9C4399
:103A0000A042E1D0211A300000F02EF8431CDBD197
:103A1000C7E7C0463C03002040030020F8B507007C
:103A20000D001600002905D11100FFF743FF040027
:103A30002000F8BD002A03D1FFF744FF3400F7E768
:103A400000F024F82C00B042F2D231003800FFF729
:103A500031FF041EECD029003200FEF7EEFD2900F4
:103A60003800FFF72FFFE3E7002370B5064C050091
:103A700008002360FCF7E4FD431C03D12368002BFE
:103A800000D02B6070BDC046240400200B1F1B68B3
:103A9000181F002B01DA0B58C0187047F8B5C04644
:103AA000F8BC08BC9E467047F8B5C046F8BC08BCD8
:103AB0009E467047030000000038014012010000DC
:103AC0000A00000000380140120100000F00000051
:103AD00000380140120100001700000000380140CA
:103AE00012000000FFFF0000FFFFFFFF00000000CA
:103AF000020000000038014012010000090000002F
:103B000000380140120100000E00000000380140A2
:103B100012010000160000000038014012000000F1
:103B2000FFFF0000FFFFFFFF0000000050696E6D07
:103B30006170206572726F723A2077726F6E6720C3
:103B4000706F7274206E756D6265722E002F686FD3
:103B50006D652F6A656E6B696E732F6275696C6433
:103B60005F6E6F64655F345F322F776F726B737057
:103B70006163652F626D5F777261702F3137303707
:103B80002F6D6265642D6F732F7461726765747336
:103B90002F5441524745545F53544D2F6770696FFE
:103BA0005F6170692E630070696E20213D2028508E
:103BB000696E4E616D65294E4300000000000000F3
:103BC000000000008B050008DD050008E90500087D
:103BD0008D050008770500088705000829050008FD
:103BE000830500082D0500083B0500087D05000839
:103BF00049050008530500085D0500086705000831
:103C000071050008AD050008750500082F686F6D87
:103C1000652F6A656E6B696E732F6275696C645F80
:103C20006E6F64655F345F322F776F726B73706194
:103C300063652F626D5F777261702F313730372F78
:103C40006D6265642D6F732F706C6174666F726D39
:103C50002F6D6265645F72657461726765742E634F
:103C600070700030203D3D20282A67756172645FC6
:103C70006F626A6563742026204358415F4755414F
:103C800052445F4D41534B29004358415F475541D2
:103C900052445F494E49545F494E5F50524F47521C
:103CA000455353203D3D20282A67756172645F6F3C
:103CB000626A6563742026204358415F475541522C
:103CC000445F4D41534B29000100000002000000F9
:103CD00004000000080000001000000020000000A8
:103CE0004000000080000000000100000002000011
:103CF0000004000000080000001000000020000088
:103D000000400000008000002F686F6D652F6A651D
:103D10006E6B696E732F6275696C645F6E6F64653C
:103D20005F345F322F776F726B73706163652F62E0
:103D30006D5F777261702F313730372F6D62656438
:103D40002D6F732F746172676574732F54415247DE
:103D500045545F53544D2F70696E6D61702E630032
:103D600043616E6E6F7420696E697469616C697A03
:103D700065205541525420776974682062617564EA
:103D800020726174652025750A002F686F6D652F9C
:103D90006A656E6B696E732F6275696C645F6E6FB6
:103DA00064655F345F322F776F726B737061636528
:103DB0002F626D5F777261702F313730372F6D62F0
:103DC00065642D6F732F746172676574732F54412E
:103DD000524745545F53544D2F73657269616C5F50
:103DE0006170692E63006F626A5F732D3E75617248
:103DF0007420213D2028554152544E616D65294E55
:103E000043004572726F723A206E65772073657257
:103E100069616C206F626A656374206973207573D1
:103E2000696E672073616D6520554152542061733E
:103E300020535444494F006F626A5F732D3E696E90
:103E4000646578203E3D2030000203040506070823
:103E5000090A0B0C0D0E0F101001020304050607D2
:103E600008090A0B0C0D0E0F1000040802536574AC
:103E7000537973436C6F636B206661696C65640A88
:103E80000000000000000000000102030406070813
:103E900009000000000102030400000040420F007E
:103EA0002000000070696E6D6170206D69732D6D6A
:103EB000617463680070696E6D6170206E6F74204C
:103EC000666F756E6420666F7220706572697068C7
:103ED0006572616C00636F756C64206E6F74207026
:103EE000696E6F7574000000F03E000880020020CB
:103EF000F51900089D190008E1190008FD190008CE
:103F0000A5190008C1190008F91800082F686F6D7D
:103F1000652F6A656E6B696E732F6275696C645F7D
:103F20006E6F64655F345F322F776F726B73706191
:103F300063652F626D5F777261702F313730372F75
:103F40006D6265642D6F732F68616C2F6D6265649F
:103F50005F7469636B65725F6170692E63006D6287
:103F60006564206173736572746174696F6E206635
:103F700061696C65643A2025732C2066696C653A2A
:103F80002025732C206C696E65202564200A002F83
:103F9000686F6D652F6A656E6B696E732F627569E8
:103FA0006C645F6E6F64655F345F322F776F726B26
:103FB00073706163652F626D5F777261702F313747
:103FC00030372F6D6265642D6F732F706C6174666E
:103FD0006F726D2F6D6265645F637269746963618E
:103FE0006C2E6300637269746963616C5F736563EF
:103FF00074696F6E5F7265656E7472616E63795F0E
:10400000636F756E746572203C2055494E5433328F
:104010005F4D415800466174616C2052756E2D747D
:10402000696D65206572726F72000A0A2B2B204D34
:104030006265644F53204572726F7220496E666FDD
:10404000202B2B0A4572726F722053746174757342
:104050003A203078255820436F64653A2025642043
:104060004D6F64756C653A2025640A4572726F72F3
:10407000204D6573736167653A20004B65726E650C
:104080006C204572726F723A20307825582C2000CF
:104090005468726561643A20307825582C20004DB0
:1040A000757465783A20307825582C200053656D5A
:1040B0006170686F72653A20307825582C20004D69
:1040C000656D6F7279506F6F6C3A20307825582C7F
:1040D00020004576656E74466C6167733A203078CF
:1040E00025582C200054696D65723A203078255887
:1040F0002C20004D65737361676551756575653A70
:1041000020307825582C20000A4C6F636174696F49
:104110006E3A2030782558000A4572726F72205628
:10412000616C75653A2030782558000A43757272C3
:10413000656E74205468726561643A2049643A205F
:104140003078255820456E7472793A203078255899
:1041500020537461636B53697A653A20307825582F
:1041600020537461636B4D656D3A2030782558207B
:1041700053503A203078255820000A2D2D204D62CA
:1041800065644F53204572726F7220496E666F20CE
:104190002D2D0A002F686F6D652F6A656E6B696E35
:1041A000732F6275696C645F6E6F64655F345F3234
:1041B0002F776F726B73706163652F626D5F7772BB
:1041C00061702F313730372F6D6265642D6F732F1B
:1041D00068616C2F6D6265645F63726974696361A5
:1041E0006C5F73656374696F6E5F6170692E6300E5
:1041F000216172655F696E74657272757074735F48
:10420000656E61626C656428290000000000000092
:10421000000000000000000000000000000000009E
:10422000000000000000000000000000000000008E
:10423000000000000000000000000000000000007E
:10424000000000000000000000000000000000006E
:10425000000000000000000000000000000000005E
:10426000000000000000000000000000C401002069
:10427000232D302B2000686C4C006566674546474F
:1042800000303132333435363738394142434445D2
:104290004600303132333435363738396162636441
:1042A00065660000B43600085E3600085E36000819
:1042B0008C3700085A3600085A3600088237000842
:1042C0008C3700085A360008823700085A36000832
:1042D0008C370008903700089037000890370008A6
:0842E0009837000800000000FF
:0842E80020BEFF7F0100000071
:1042F00000000000FFFFFFFFFFFFFFFFFFFFFFFFCA
:1043000000000000000000000000000000000000AD
:10431000000000000000000000000000000000009D
:10432000000000000000000000000000000000008D
:10433000000000000000000000000000000000007D
:10434000000000000000000000000000000000006D
:10435000000000000000000000000000000000005D
:10436000000000000000000000000000000000004D
:10437000000000000000000000000000000000003D
:10438000000000000000000000000000000000002D
:10439000000000000000000000000000000000001D
:1043A000000000000000000000000000000000000D
:1043B00000000000000000000000000000000000FD
:1043C00000000000000000000000000000000000ED
:1043D00000000000000000000000000000000000DD
:1043E00000000000000000000000000000000000CD
:1043F000000000002804002000127A00211E00089E
:10440000C4010020000000002C4200084C420008BB
:104410000C42000800000000000000000000000046
:10442000000000000000000000000000000000008C
:10443000000000000000000000000000000000007C
:10444000000000000000000000000000000000006C
:10445000000000000000000000000000000000005C
:1044600000000000E900000879020008C10000080F
:0400000508000D3DA5
:00000001FF
